{
  "_format": "hh-sol-artifact-1",
  "contractName": "MyEpicNFT",
  "sourceName": "contracts/MyEpicNFT.sol",
  "abi": [
    {
      "inputs": [],
      "stateMutability": "nonpayable",
      "type": "constructor"
    },
    {
      "anonymous": false,
      "inputs": [
        {
          "indexed": true,
          "internalType": "address",
          "name": "owner",
          "type": "address"
        },
        {
          "indexed": true,
          "internalType": "address",
          "name": "approved",
          "type": "address"
        },
        {
          "indexed": true,
          "internalType": "uint256",
          "name": "tokenId",
          "type": "uint256"
        }
      ],
      "name": "Approval",
      "type": "event"
    },
    {
      "anonymous": false,
      "inputs": [
        {
          "indexed": true,
          "internalType": "address",
          "name": "owner",
          "type": "address"
        },
        {
          "indexed": true,
          "internalType": "address",
          "name": "operator",
          "type": "address"
        },
        {
          "indexed": false,
          "internalType": "bool",
          "name": "approved",
          "type": "bool"
        }
      ],
      "name": "ApprovalForAll",
      "type": "event"
    },
    {
      "anonymous": false,
      "inputs": [
        {
          "indexed": false,
          "internalType": "address",
          "name": "",
          "type": "address"
        },
        {
          "indexed": false,
          "internalType": "uint256",
          "name": "",
          "type": "uint256"
        }
      ],
      "name": "NewNftMinter",
      "type": "event"
    },
    {
      "anonymous": false,
      "inputs": [
        {
          "indexed": true,
          "internalType": "address",
          "name": "from",
          "type": "address"
        },
        {
          "indexed": true,
          "internalType": "address",
          "name": "to",
          "type": "address"
        },
        {
          "indexed": true,
          "internalType": "uint256",
          "name": "tokenId",
          "type": "uint256"
        }
      ],
      "name": "Transfer",
      "type": "event"
    },
    {
      "inputs": [
        {
          "internalType": "address",
          "name": "to",
          "type": "address"
        },
        {
          "internalType": "uint256",
          "name": "tokenId",
          "type": "uint256"
        }
      ],
      "name": "approve",
      "outputs": [],
      "stateMutability": "nonpayable",
      "type": "function"
    },
    {
      "inputs": [
        {
          "internalType": "address",
          "name": "owner",
          "type": "address"
        }
      ],
      "name": "balanceOf",
      "outputs": [
        {
          "internalType": "uint256",
          "name": "",
          "type": "uint256"
        }
      ],
      "stateMutability": "view",
      "type": "function"
    },
    {
      "inputs": [
        {
          "internalType": "uint256",
          "name": "tokenId",
          "type": "uint256"
        }
      ],
      "name": "getApproved",
      "outputs": [
        {
          "internalType": "address",
          "name": "",
          "type": "address"
        }
      ],
      "stateMutability": "view",
      "type": "function"
    },
    {
      "inputs": [
        {
          "internalType": "address",
          "name": "owner",
          "type": "address"
        },
        {
          "internalType": "address",
          "name": "operator",
          "type": "address"
        }
      ],
      "name": "isApprovedForAll",
      "outputs": [
        {
          "internalType": "bool",
          "name": "",
          "type": "bool"
        }
      ],
      "stateMutability": "view",
      "type": "function"
    },
    {
      "inputs": [],
      "name": "makeNft",
      "outputs": [],
      "stateMutability": "nonpayable",
      "type": "function"
    },
    {
      "inputs": [],
      "name": "name",
      "outputs": [
        {
          "internalType": "string",
          "name": "",
          "type": "string"
        }
      ],
      "stateMutability": "view",
      "type": "function"
    },
    {
      "inputs": [
        {
          "internalType": "uint256",
          "name": "tokenId",
          "type": "uint256"
        }
      ],
      "name": "ownerOf",
      "outputs": [
        {
          "internalType": "address",
          "name": "",
          "type": "address"
        }
      ],
      "stateMutability": "view",
      "type": "function"
    },
    {
      "inputs": [
        {
          "internalType": "uint256",
          "name": "tokenId",
          "type": "uint256"
        },
        {
          "internalType": "string[]",
          "name": "array",
          "type": "string[]"
        }
      ],
      "name": "pickRandomWord",
      "outputs": [
        {
          "internalType": "string",
          "name": "",
          "type": "string"
        }
      ],
      "stateMutability": "view",
      "type": "function"
    },
    {
      "inputs": [
        {
          "internalType": "address",
          "name": "from",
          "type": "address"
        },
        {
          "internalType": "address",
          "name": "to",
          "type": "address"
        },
        {
          "internalType": "uint256",
          "name": "tokenId",
          "type": "uint256"
        }
      ],
      "name": "safeTransferFrom",
      "outputs": [],
      "stateMutability": "nonpayable",
      "type": "function"
    },
    {
      "inputs": [
        {
          "internalType": "address",
          "name": "from",
          "type": "address"
        },
        {
          "internalType": "address",
          "name": "to",
          "type": "address"
        },
        {
          "internalType": "uint256",
          "name": "tokenId",
          "type": "uint256"
        },
        {
          "internalType": "bytes",
          "name": "data",
          "type": "bytes"
        }
      ],
      "name": "safeTransferFrom",
      "outputs": [],
      "stateMutability": "nonpayable",
      "type": "function"
    },
    {
      "inputs": [
        {
          "internalType": "address",
          "name": "operator",
          "type": "address"
        },
        {
          "internalType": "bool",
          "name": "approved",
          "type": "bool"
        }
      ],
      "name": "setApprovalForAll",
      "outputs": [],
      "stateMutability": "nonpayable",
      "type": "function"
    },
    {
      "inputs": [
        {
          "internalType": "bytes4",
          "name": "interfaceId",
          "type": "bytes4"
        }
      ],
      "name": "supportsInterface",
      "outputs": [
        {
          "internalType": "bool",
          "name": "",
          "type": "bool"
        }
      ],
      "stateMutability": "view",
      "type": "function"
    },
    {
      "inputs": [],
      "name": "symbol",
      "outputs": [
        {
          "internalType": "string",
          "name": "",
          "type": "string"
        }
      ],
      "stateMutability": "view",
      "type": "function"
    },
    {
      "inputs": [
        {
          "internalType": "uint256",
          "name": "tokenId",
          "type": "uint256"
        }
      ],
      "name": "tokenURI",
      "outputs": [
        {
          "internalType": "string",
          "name": "",
          "type": "string"
        }
      ],
      "stateMutability": "view",
      "type": "function"
    },
    {
      "inputs": [
        {
          "internalType": "address",
          "name": "from",
          "type": "address"
        },
        {
          "internalType": "address",
          "name": "to",
          "type": "address"
        },
        {
          "internalType": "uint256",
          "name": "tokenId",
          "type": "uint256"
        }
      ],
      "name": "transferFrom",
      "outputs": [],
      "stateMutability": "nonpayable",
      "type": "function"
    }
  ],
  "bytecode": "0x608060405260405180610160016040528061012f8152602001620049cd61012f913960089080519060200190620000389291906200102f565b506040518061028001604052806040518060400160405280600781526020017f416e6e6f7965640000000000000000000000000000000000000000000000000081525081526020016040518060400160405280600681526020017f506f6c697465000000000000000000000000000000000000000000000000000081525081526020016040518060400160405280600881526020017f4d616e696163616c00000000000000000000000000000000000000000000000081525081526020016040518060400160405280600881526020017f4f62736f6c65746500000000000000000000000000000000000000000000000081525081526020016040518060400160405280600481526020017f466173740000000000000000000000000000000000000000000000000000000081525081526020016040518060400160405280600681526020017f42726f6b656e000000000000000000000000000000000000000000000000000081525081526020016040518060400160405280600981526020017f526570756c73697665000000000000000000000000000000000000000000000081525081526020016040518060400160405280600881526020017f5069636179756e6500000000000000000000000000000000000000000000000081525081526020016040518060400160405280600481526020017f4f76616c0000000000000000000000000000000000000000000000000000000081525081526020016040518060400160405280600881526020017f52656c6576616e7400000000000000000000000000000000000000000000000081525081526020016040518060400160405280600781526020017f4665617266756c0000000000000000000000000000000000000000000000000081525081526020016040518060400160405280600781526020017f486964656f75730000000000000000000000000000000000000000000000000081525081526020016040518060400160405280600981526020017f506c61757369626c65000000000000000000000000000000000000000000000081525081526020016040518060400160405280600b81526020017f496e746572657374696e6700000000000000000000000000000000000000000081525081526020016040518060400160405280600981526020017f456666696369656e74000000000000000000000000000000000000000000000081525081526020016040518060400160405280600581526020017f4d7573687900000000000000000000000000000000000000000000000000000081525081526020016040518060400160405280600b81526020017f5369676e69666963616e7400000000000000000000000000000000000000000081525081526020016040518060400160405280600981526020017f4e6f6973656c657373000000000000000000000000000000000000000000000081525081526020016040518060400160405280600c81526020017f456e7465727461696e696e67000000000000000000000000000000000000000081525081526020016040518060400160405280600581526020017f536d616c6c0000000000000000000000000000000000000000000000000000008152508152506009906014620004f1929190620010c0565b506040518061028001604052806040518060400160405280600381526020017f52656d000000000000000000000000000000000000000000000000000000000081525081526020016040518060400160405280600781526020017f53616974616d610000000000000000000000000000000000000000000000000081525081526020016040518060400160405280600681526020017f4b616e656b69000000000000000000000000000000000000000000000000000081525081526020016040518060400160405280600881526020017f48696b696761796100000000000000000000000000000000000000000000000081525081526020016040518060400160405280600681526020017f4d696b617361000000000000000000000000000000000000000000000000000081525081526020016040518060400160405280600681526020017f497461636869000000000000000000000000000000000000000000000000000081525081526020016040518060400160405280600481526020017f4572656e0000000000000000000000000000000000000000000000000000000081525081526020016040518060400160405280600681526020017f4b7572697375000000000000000000000000000000000000000000000000000081525081526020016040518060400160405280600481526020017f477574730000000000000000000000000000000000000000000000000000000081525081526020016040518060400160405280600781526020017f47696e746f6b690000000000000000000000000000000000000000000000000081525081526020016040518060400160405280600681526020017f4e617275746f000000000000000000000000000000000000000000000000000081525081526020016040518060400160405280600581526020017f456c72696300000000000000000000000000000000000000000000000000000081525081526020016040518060400160405280600681526020017f4b696c6c7561000000000000000000000000000000000000000000000000000081525081526020016040518060400160405280600581526020017f4f6b61626500000000000000000000000000000000000000000000000000000081525081526020016040518060400160405280600681526020017f596167616d69000000000000000000000000000000000000000000000000000081525081526020016040518060400160405280600481526020017f5a6f726f0000000000000000000000000000000000000000000000000000000081525081526020016040518060400160405280600581526020017f4c7566667900000000000000000000000000000000000000000000000000000081525081526020016040518060400160405280600781526020017f4c61776c6965740000000000000000000000000000000000000000000000000081525081526020016040518060400160405280600881526020017f41636b65726d616e00000000000000000000000000000000000000000000000081525081526020016040518060400160405280600781526020017f4c656c6f75636800000000000000000000000000000000000000000000000000815250815250600a906014620009aa929190620010c0565b506040518061028001604052806040518060400160405280600681526020017f537065616b73000000000000000000000000000000000000000000000000000081525081526020016040518060400160405280600581526020017f43616c6c7300000000000000000000000000000000000000000000000000000081525081526020016040518060400160405280600581526020017f436f6d657300000000000000000000000000000000000000000000000000000081525081526020016040518060400160405280600781526020017f526570616972730000000000000000000000000000000000000000000000000081525081526020016040518060400160405280600681526020017f4472696e6b73000000000000000000000000000000000000000000000000000081525081526020016040518060400160405280600581526020017f526573747300000000000000000000000000000000000000000000000000000081525081526020016040518060400160405280600781526020017f457870616e64730000000000000000000000000000000000000000000000000081525081526020016040518060400160405280600981526020017f436f6e66726f6e7473000000000000000000000000000000000000000000000081525081526020016040518060400160405280600981526020017f446f6d696e61746573000000000000000000000000000000000000000000000081525081526020016040518060400160405280600881526020017f537570706c69657300000000000000000000000000000000000000000000000081525081526020016040518060400160405280600581526020017f5369676e7300000000000000000000000000000000000000000000000000000081525081526020016040518060400160405280600881526020017f446573657276657300000000000000000000000000000000000000000000000081525081526020016040518060400160405280600581526020017f4561726e7300000000000000000000000000000000000000000000000000000081525081526020016040518060400160405280600681526020017f5368696e6573000000000000000000000000000000000000000000000000000081525081526020016040518060400160405280600781526020017f576f6e646572730000000000000000000000000000000000000000000000000081525081526020016040518060400160405280600781526020017f49676e6f7265730000000000000000000000000000000000000000000000000081525081526020016040518060400160405280600a81526020017f486967686c69676874730000000000000000000000000000000000000000000081525081526020016040518060400160405280600781526020017f537566666572730000000000000000000000000000000000000000000000000081525081526020016040518060400160405280600881526020017f436f6c6c6563747300000000000000000000000000000000000000000000000081525081526020016040518060400160405280600681526020017f536c696465730000000000000000000000000000000000000000000000000000815250815250600b90601462000e63929190620010c0565b5034801562000e7157600080fd5b506040518060400160405280600b81526020017f526f73736f68696e4e46540000000000000000000000000000000000000000008152506040518060400160405280600881526020017f524f53534f48494e000000000000000000000000000000000000000000000000815250816000908051906020019062000ef69291906200102f565b50806001908051906020019062000f0f9291906200102f565b50505062000f5d6040518060400160405280601381526020017f4e465420636f6e7472616374207368656573680000000000000000000000000081525062000f6360201b62000f9e1760201c565b620012e1565b620010038160405160240162000f7a9190620011f5565b6040516020818303038152906040527f41304fac000000000000000000000000000000000000000000000000000000007bffffffffffffffffffffffffffffffffffffffffffffffffffffffff19166020820180517bffffffffffffffffffffffffffffffffffffffffffffffffffffffff83818316178352505050506200100660201b60201c565b50565b60008151905060006a636f6e736f6c652e6c6f679050602083016000808483855afa5050505050565b8280546200103d906200126b565b90600052602060002090601f016020900481019282620010615760008555620010ad565b82601f106200107c57805160ff1916838001178555620010ad565b82800160010185558215620010ad579182015b82811115620010ac5782518255916020019190600101906200108f565b5b509050620010bc919062001127565b5090565b82805482825590600052602060002090810192821562001114579160200282015b8281111562001113578251829080519060200190620011029291906200102f565b5091602001919060010190620010e1565b5b50905062001123919062001146565b5090565b5b808211156200114257600081600090555060010162001128565b5090565b5b808211156200116a57600081816200116091906200116e565b5060010162001147565b5090565b5080546200117c906200126b565b6000825580601f10620011905750620011b1565b601f016020900490600052602060002090810190620011b0919062001127565b5b50565b6000620011c18262001219565b620011cd818562001224565b9350620011df81856020860162001235565b620011ea81620012d0565b840191505092915050565b60006020820190508181036000830152620012118184620011b4565b905092915050565b600081519050919050565b600082825260208201905092915050565b60005b838110156200125557808201518184015260208101905062001238565b8381111562001265576000848401525b50505050565b600060028204905060018216806200128457607f821691505b602082108114156200129b576200129a620012a1565b5b50919050565b7f4e487b7100000000000000000000000000000000000000000000000000000000600052602260045260246000fd5b6000601f19601f8301169050919050565b6136dc80620012f16000396000f3fe608060405234801561001057600080fd5b50600436106100f55760003560e01c806370a0823111610097578063a22cb46511610066578063a22cb46514610284578063b88d4fde146102a0578063c87b56dd146102bc578063e985e9c5146102ec576100f5565b806370a08231146101fc57806375af75fe1461022c5780637c80d0c71461025c57806395d89b4114610266576100f5565b8063095ea7b3116100d3578063095ea7b31461017857806323b872dd1461019457806342842e0e146101b05780636352211e146101cc576100f5565b806301ffc9a7146100fa57806306fdde031461012a578063081812fc14610148575b600080fd5b610114600480360381019061010f919061245d565b61031c565b6040516101219190612aa5565b60405180910390f35b6101326103fe565b60405161013f9190612ac0565b60405180910390f35b610162600480360381019061015d91906124af565b610490565b60405161016f9190612a15565b60405180910390f35b610192600480360381019061018d9190612421565b6104d6565b005b6101ae60048036038101906101a9919061231b565b6105ee565b005b6101ca60048036038101906101c5919061231b565b61064e565b005b6101e660048036038101906101e191906124af565b61066e565b6040516101f39190612a15565b60405180910390f35b610216600480360381019061021191906122b6565b610720565b6040516102239190612ca0565b60405180910390f35b610246600480360381019061024191906124d8565b6107d8565b6040516102539190612ac0565b60405180910390f35b610264610871565b005b61026e610ced565b60405161027b9190612ac0565b60405180910390f35b61029e600480360381019061029991906123e5565b610d7f565b005b6102ba60048036038101906102b5919061236a565b610d95565b005b6102d660048036038101906102d191906124af565b610df7565b6040516102e39190612ac0565b60405180910390f35b610306600480360381019061030191906122df565b610f0a565b6040516103139190612aa5565b60405180910390f35b60007f80ac58cd000000000000000000000000000000000000000000000000000000007bffffffffffffffffffffffffffffffffffffffffffffffffffffffff1916827bffffffffffffffffffffffffffffffffffffffffffffffffffffffff191614806103e757507f5b5e139f000000000000000000000000000000000000000000000000000000007bffffffffffffffffffffffffffffffffffffffffffffffffffffffff1916827bffffffffffffffffffffffffffffffffffffffffffffffffffffffff1916145b806103f757506103f682611037565b5b9050919050565b60606000805461040d90612f91565b80601f016020809104026020016040519081016040528092919081815260200182805461043990612f91565b80156104865780601f1061045b57610100808354040283529160200191610486565b820191906000526020600020905b81548152906001019060200180831161046957829003601f168201915b5050505050905090565b600061049b826110a1565b6004600083815260200190815260200160002060009054906101000a900473ffffffffffffffffffffffffffffffffffffffff169050919050565b60006104e18261066e565b90508073ffffffffffffffffffffffffffffffffffffffff168373ffffffffffffffffffffffffffffffffffffffff161415610552576040517f08c379a000000000000000000000000000000000000000000000000000000000815260040161054990612c60565b60405180910390fd5b8073ffffffffffffffffffffffffffffffffffffffff166105716110ec565b73ffffffffffffffffffffffffffffffffffffffff1614806105a0575061059f8161059a6110ec565b610f0a565b5b6105df576040517f08c379a00000000000000000000000000000000000000000000000000000000081526004016105d690612c00565b60405180910390fd5b6105e983836110f4565b505050565b6105ff6105f96110ec565b826111ad565b61063e576040517f08c379a000000000000000000000000000000000000000000000000000000000815260040161063590612c80565b60405180910390fd5b610649838383611242565b505050565b61066983838360405180602001604052806000815250610d95565b505050565b6000806002600084815260200190815260200160002060009054906101000a900473ffffffffffffffffffffffffffffffffffffffff169050600073ffffffffffffffffffffffffffffffffffffffff168173ffffffffffffffffffffffffffffffffffffffff161415610717576040517f08c379a000000000000000000000000000000000000000000000000000000000815260040161070e90612c40565b60405180910390fd5b80915050919050565b60008073ffffffffffffffffffffffffffffffffffffffff168273ffffffffffffffffffffffffffffffffffffffff161415610791576040517f08c379a000000000000000000000000000000000000000000000000000000000815260040161078890612bc0565b60405180910390fd5b600360008373ffffffffffffffffffffffffffffffffffffffff1673ffffffffffffffffffffffffffffffffffffffff168152602001908152602001600020549050919050565b606060006108166107e8426114a9565b6107f1866114a9565b604051602001610802929190612908565b604051602081830303815290604052611656565b9050825181610825919061303d565b9050828181518110610860577f4e487b7100000000000000000000000000000000000000000000000000000000600052603260045260246000fd5b602002602001015191505092915050565b600061087d6007611689565b9050600061095c826009805480602002602001604051908101604052809291908181526020016000905b828210156109535783829060005260206000200180546108c690612f91565b80601f01602080910402602001604051908101604052809291908181526020018280546108f290612f91565b801561093f5780601f106109145761010080835404028352916020019161093f565b820191906000526020600020905b81548152906001019060200180831161092257829003601f168201915b5050505050815260200190600101906108a7565b505050506107d8565b90506000610a3b83600a805480602002602001604051908101604052809291908181526020016000905b82821015610a325783829060005260206000200180546109a590612f91565b80601f01602080910402602001604051908101604052809291908181526020018280546109d190612f91565b8015610a1e5780601f106109f357610100808354040283529160200191610a1e565b820191906000526020600020905b815481529060010190602001808311610a0157829003601f168201915b505050505081526020019060010190610986565b505050506107d8565b90506000610b1a84600b805480602002602001604051908101604052809291908181526020016000905b82821015610b11578382906000526020600020018054610a8490612f91565b80601f0160208091040260200160405190810160405280929190818152602001828054610ab090612f91565b8015610afd5780601f10610ad257610100808354040283529160200191610afd565b820191906000526020600020905b815481529060010190602001808311610ae057829003601f168201915b505050505081526020019060010190610a65565b505050506107d8565b90506000838383604051602001610b339392919061292c565b60405160208183030381529060405290506000600882604051602001610b5a92919061295d565b60405160208183030381529060405290506000610b9f83610b7a84611697565b604051602001610b8b9291906129ae565b604051602081830303815290604052611697565b9050600081604051602001610bb491906129f3565b6040516020818303038152906040529050610c036040518060400160405280601581526020017f0a2d2d2d2d2d2d2d2d2d2d2d2d2d2d2d2d2d2d2d2d0000000000000000000000815250610f9e565b610c2b81604051602001610c17919061298c565b604051602081830303815290604052610f9e565b610c696040518060400160405280601581526020017f2d2d2d2d2d2d2d2d2d2d2d2d2d2d2d2d2d2d2d2d0a0000000000000000000000815250610f9e565b610c733389611836565b610c7d8882611854565b610c8760076118c8565b610caa6040518060600160405280602581526020016136426025913989336118de565b7f1c9e5737f73f08ccd31ed9852491eb10165832d5fb3fd42338d71be0411ab4ed3389604051610cdb929190612a7c565b60405180910390a15050505050505050565b606060018054610cfc90612f91565b80601f0160208091040260200160405190810160405280929190818152602001828054610d2890612f91565b8015610d755780601f10610d4a57610100808354040283529160200191610d75565b820191906000526020600020905b815481529060010190602001808311610d5857829003601f168201915b5050505050905090565b610d91610d8a6110ec565b838361197d565b5050565b610da6610da06110ec565b836111ad565b610de5576040517f08c379a0000000000000000000000000000000000000000000000000000000008152600401610ddc90612c80565b60405180910390fd5b610df184848484611aea565b50505050565b6060610e02826110a1565b6000600660008481526020019081526020016000208054610e2290612f91565b80601f0160208091040260200160405190810160405280929190818152602001828054610e4e90612f91565b8015610e9b5780601f10610e7057610100808354040283529160200191610e9b565b820191906000526020600020905b815481529060010190602001808311610e7e57829003601f168201915b505050505090506000610eac611b46565b9050600081511415610ec2578192505050610f05565b600082511115610ef7578082604051602001610edf929190612908565b60405160208183030381529060405292505050610f05565b610f0084611b5d565b925050505b919050565b6000600560008473ffffffffffffffffffffffffffffffffffffffff1673ffffffffffffffffffffffffffffffffffffffff16815260200190815260200160002060008373ffffffffffffffffffffffffffffffffffffffff1673ffffffffffffffffffffffffffffffffffffffff16815260200190815260200160002060009054906101000a900460ff16905092915050565b61103481604051602401610fb29190612ac0565b6040516020818303038152906040527f41304fac000000000000000000000000000000000000000000000000000000007bffffffffffffffffffffffffffffffffffffffffffffffffffffffff19166020820180517bffffffffffffffffffffffffffffffffffffffffffffffffffffffff8381831617835250505050611bc5565b50565b60007f01ffc9a7000000000000000000000000000000000000000000000000000000007bffffffffffffffffffffffffffffffffffffffffffffffffffffffff1916827bffffffffffffffffffffffffffffffffffffffffffffffffffffffff1916149050919050565b6110aa81611bee565b6110e9576040517f08c379a00000000000000000000000000000000000000000000000000000000081526004016110e090612c40565b60405180910390fd5b50565b600033905090565b816004600083815260200190815260200160002060006101000a81548173ffffffffffffffffffffffffffffffffffffffff021916908373ffffffffffffffffffffffffffffffffffffffff160217905550808273ffffffffffffffffffffffffffffffffffffffff166111678361066e565b73ffffffffffffffffffffffffffffffffffffffff167f8c5be1e5ebec7d5bd14f71427d1e84f3dd0314c0f7b2291e5b200ac8c7c3b92560405160405180910390a45050565b6000806111b98361066e565b90508073ffffffffffffffffffffffffffffffffffffffff168473ffffffffffffffffffffffffffffffffffffffff1614806111fb57506111fa8185610f0a565b5b8061123957508373ffffffffffffffffffffffffffffffffffffffff1661122184610490565b73ffffffffffffffffffffffffffffffffffffffff16145b91505092915050565b8273ffffffffffffffffffffffffffffffffffffffff166112628261066e565b73ffffffffffffffffffffffffffffffffffffffff16146112b8576040517f08c379a00000000000000000000000000000000000000000000000000000000081526004016112af90612b40565b60405180910390fd5b600073ffffffffffffffffffffffffffffffffffffffff168273ffffffffffffffffffffffffffffffffffffffff161415611328576040517f08c379a000000000000000000000000000000000000000000000000000000000815260040161131f90612b80565b60405180910390fd5b611333838383611c5a565b61133e6000826110f4565b6001600360008573ffffffffffffffffffffffffffffffffffffffff1673ffffffffffffffffffffffffffffffffffffffff168152602001908152602001600020600082825461138e9190612ea7565b925050819055506001600360008473ffffffffffffffffffffffffffffffffffffffff1673ffffffffffffffffffffffffffffffffffffffff16815260200190815260200160002060008282546113e59190612dc6565b92505081905550816002600083815260200190815260200160002060006101000a81548173ffffffffffffffffffffffffffffffffffffffff021916908373ffffffffffffffffffffffffffffffffffffffff160217905550808273ffffffffffffffffffffffffffffffffffffffff168473ffffffffffffffffffffffffffffffffffffffff167fddf252ad1be2c89b69c2b068fc378daa952ba7f163c4a11628f55a4df523b3ef60405160405180910390a46114a4838383611c5f565b505050565b606060008214156114f1576040518060400160405280600181526020017f30000000000000000000000000000000000000000000000000000000000000008152509050611651565b600082905060005b6000821461152357808061150c90612ff4565b915050600a8261151c9190612e1c565b91506114f9565b60008167ffffffffffffffff811115611565577f4e487b7100000000000000000000000000000000000000000000000000000000600052604160045260246000fd5b6040519080825280601f01601f1916602001820160405280156115975781602001600182028036833780820191505090505b5090505b6000851461164a576001826115b09190612ea7565b9150600a856115bf919061303d565b60306115cb9190612dc6565b60f81b818381518110611607577f4e487b7100000000000000000000000000000000000000000000000000000000600052603260045260246000fd5b60200101907effffffffffffffffffffffffffffffffffffffffffffffffffffffffffffff1916908160001a905350600a856116439190612e1c565b945061159b565b8093505050505b919050565b60008160405160200161166991906128f1565b6040516020818303038152906040528051906020012060001c9050919050565b600081600001549050919050565b60606000825114156116ba57604051806020016040528060008152509050611831565b600060405180606001604052806040815260200161366760409139905060006003600285516116e99190612dc6565b6116f39190612e1c565b60046116ff9190612e4d565b905060006020826117109190612dc6565b67ffffffffffffffff81111561174f577f4e487b7100000000000000000000000000000000000000000000000000000000600052604160045260246000fd5b6040519080825280601f01601f1916602001820160405280156117815781602001600182028036833780820191505090505b509050818152600183018586518101602084015b818310156117f0576003830192508251603f8160121c168501518253600182019150603f81600c1c168501518253600182019150603f8160061c168501518253600182019150603f8116850151825360018201915050611795565b60038951066001811461180a576002811461181a57611825565b613d3d60f01b6002830352611825565b603d60f81b60018303525b50505050508093505050505b919050565b611850828260405180602001604052806000815250611c64565b5050565b61185d82611bee565b61189c576040517f08c379a000000000000000000000000000000000000000000000000000000000815260040161189390612be0565b60405180910390fd5b806006600084815260200190815260200160002090805190602001906118c3929190612053565b505050565b6001816000016000828254019250508190555050565b6119788383836040516024016118f693929190612ae2565b6040516020818303038152906040527fe3849f79000000000000000000000000000000000000000000000000000000007bffffffffffffffffffffffffffffffffffffffffffffffffffffffff19166020820180517bffffffffffffffffffffffffffffffffffffffffffffffffffffffff8381831617835250505050611bc5565b505050565b8173ffffffffffffffffffffffffffffffffffffffff168373ffffffffffffffffffffffffffffffffffffffff1614156119ec576040517f08c379a00000000000000000000000000000000000000000000000000000000081526004016119e390612ba0565b60405180910390fd5b80600560008573ffffffffffffffffffffffffffffffffffffffff1673ffffffffffffffffffffffffffffffffffffffff16815260200190815260200160002060008473ffffffffffffffffffffffffffffffffffffffff1673ffffffffffffffffffffffffffffffffffffffff16815260200190815260200160002060006101000a81548160ff0219169083151502179055508173ffffffffffffffffffffffffffffffffffffffff168373ffffffffffffffffffffffffffffffffffffffff167f17307eab39ab6107e8899845ad3d59bd9653f200f220920489ca2b5937696c3183604051611add9190612aa5565b60405180910390a3505050565b611af5848484611242565b611b0184848484611cbf565b611b40576040517f08c379a0000000000000000000000000000000000000000000000000000000008152600401611b3790612b20565b60405180910390fd5b50505050565b606060405180602001604052806000815250905090565b6060611b68826110a1565b6000611b72611b46565b90506000815111611b925760405180602001604052806000815250611bbd565b80611b9c846114a9565b604051602001611bad929190612908565b6040516020818303038152906040525b915050919050565b60008151905060006a636f6e736f6c652e6c6f679050602083016000808483855afa5050505050565b60008073ffffffffffffffffffffffffffffffffffffffff166002600084815260200190815260200160002060009054906101000a900473ffffffffffffffffffffffffffffffffffffffff1673ffffffffffffffffffffffffffffffffffffffff1614159050919050565b505050565b505050565b611c6e8383611e56565b611c7b6000848484611cbf565b611cba576040517f08c379a0000000000000000000000000000000000000000000000000000000008152600401611cb190612b20565b60405180910390fd5b505050565b6000611ce08473ffffffffffffffffffffffffffffffffffffffff16612030565b15611e49578373ffffffffffffffffffffffffffffffffffffffff1663150b7a02611d096110ec565b8786866040518563ffffffff1660e01b8152600401611d2b9493929190612a30565b602060405180830381600087803b158015611d4557600080fd5b505af1925050508015611d7657506040513d601f19601f82011682018060405250810190611d739190612486565b60015b611df9573d8060008114611da6576040519150601f19603f3d011682016040523d82523d6000602084013e611dab565b606091505b50600081511415611df1576040517f08c379a0000000000000000000000000000000000000000000000000000000008152600401611de890612b20565b60405180910390fd5b805181602001fd5b63150b7a0260e01b7bffffffffffffffffffffffffffffffffffffffffffffffffffffffff1916817bffffffffffffffffffffffffffffffffffffffffffffffffffffffff191614915050611e4e565b600190505b949350505050565b600073ffffffffffffffffffffffffffffffffffffffff168273ffffffffffffffffffffffffffffffffffffffff161415611ec6576040517f08c379a0000000000000000000000000000000000000000000000000000000008152600401611ebd90612c20565b60405180910390fd5b611ecf81611bee565b15611f0f576040517f08c379a0000000000000000000000000000000000000000000000000000000008152600401611f0690612b60565b60405180910390fd5b611f1b60008383611c5a565b6001600360008473ffffffffffffffffffffffffffffffffffffffff1673ffffffffffffffffffffffffffffffffffffffff1681526020019081526020016000206000828254611f6b9190612dc6565b92505081905550816002600083815260200190815260200160002060006101000a81548173ffffffffffffffffffffffffffffffffffffffff021916908373ffffffffffffffffffffffffffffffffffffffff160217905550808273ffffffffffffffffffffffffffffffffffffffff16600073ffffffffffffffffffffffffffffffffffffffff167fddf252ad1be2c89b69c2b068fc378daa952ba7f163c4a11628f55a4df523b3ef60405160405180910390a461202c60008383611c5f565b5050565b6000808273ffffffffffffffffffffffffffffffffffffffff163b119050919050565b82805461205f90612f91565b90600052602060002090601f01602090048101928261208157600085556120c8565b82601f1061209a57805160ff19168380011785556120c8565b828001600101855582156120c8579182015b828111156120c75782518255916020019190600101906120ac565b5b5090506120d591906120d9565b5090565b5b808211156120f25760008160009055506001016120da565b5090565b600061210961210484612ce0565b612cbb565b9050808382526020820190508260005b85811015612149578135850161212f8882612277565b845260208401935060208301925050600181019050612119565b5050509392505050565b600061216661216184612d0c565b612cbb565b90508281526020810184848401111561217e57600080fd5b612189848285612f4f565b509392505050565b60006121a461219f84612d3d565b612cbb565b9050828152602081018484840111156121bc57600080fd5b6121c7848285612f4f565b509392505050565b6000813590506121de816135e5565b92915050565b600082601f8301126121f557600080fd5b81356122058482602086016120f6565b91505092915050565b60008135905061221d816135fc565b92915050565b60008135905061223281613613565b92915050565b60008151905061224781613613565b92915050565b600082601f83011261225e57600080fd5b813561226e848260208601612153565b91505092915050565b600082601f83011261228857600080fd5b8135612298848260208601612191565b91505092915050565b6000813590506122b08161362a565b92915050565b6000602082840312156122c857600080fd5b60006122d6848285016121cf565b91505092915050565b600080604083850312156122f257600080fd5b6000612300858286016121cf565b9250506020612311858286016121cf565b9150509250929050565b60008060006060848603121561233057600080fd5b600061233e868287016121cf565b935050602061234f868287016121cf565b9250506040612360868287016122a1565b9150509250925092565b6000806000806080858703121561238057600080fd5b600061238e878288016121cf565b945050602061239f878288016121cf565b93505060406123b0878288016122a1565b925050606085013567ffffffffffffffff8111156123cd57600080fd5b6123d98782880161224d565b91505092959194509250565b600080604083850312156123f857600080fd5b6000612406858286016121cf565b92505060206124178582860161220e565b9150509250929050565b6000806040838503121561243457600080fd5b6000612442858286016121cf565b9250506020612453858286016122a1565b9150509250929050565b60006020828403121561246f57600080fd5b600061247d84828501612223565b91505092915050565b60006020828403121561249857600080fd5b60006124a684828501612238565b91505092915050565b6000602082840312156124c157600080fd5b60006124cf848285016122a1565b91505092915050565b600080604083850312156124eb57600080fd5b60006124f9858286016122a1565b925050602083013567ffffffffffffffff81111561251657600080fd5b612522858286016121e4565b9150509250929050565b61253581612edb565b82525050565b61254481612eed565b82525050565b600061255582612d83565b61255f8185612d99565b935061256f818560208601612f5e565b6125788161312a565b840191505092915050565b600061258e82612d8e565b6125988185612daa565b93506125a8818560208601612f5e565b6125b18161312a565b840191505092915050565b60006125c782612d8e565b6125d18185612dbb565b93506125e1818560208601612f5e565b80840191505092915050565b600081546125fa81612f91565b6126048186612dbb565b9450600182166000811461261f576001811461263057612663565b60ff19831686528186019350612663565b61263985612d6e565b60005b8381101561265b5781548189015260018201915060208101905061263c565b838801955050505b50505092915050565b6000612679602583612dbb565b91506126848261313b565b602582019050919050565b600061269c603283612daa565b91506126a78261318a565b604082019050919050565b60006126bf602583612daa565b91506126ca826131d9565b604082019050919050565b60006126e2601c83612daa565b91506126ed82613228565b602082019050919050565b6000612705602483612daa565b915061271082613251565b604082019050919050565b6000612728601983612daa565b9150612733826132a0565b602082019050919050565b600061274b606383612dbb565b9150612756826132c9565b606382019050919050565b600061276e600d83612dbb565b915061277982613364565b600d82019050919050565b6000612791602983612daa565b915061279c8261338d565b604082019050919050565b60006127b4602e83612daa565b91506127bf826133dc565b604082019050919050565b60006127d7600283612dbb565b91506127e28261342b565b600282019050919050565b60006127fa603e83612daa565b915061280582613454565b604082019050919050565b600061281d602083612daa565b9150612828826134a3565b602082019050919050565b6000612840600a83612dbb565b915061284b826134cc565b600a82019050919050565b6000612863601883612daa565b915061286e826134f5565b602082019050919050565b6000612886602183612daa565b91506128918261351e565b604082019050919050565b60006128a9601d83612dbb565b91506128b48261356d565b601d82019050919050565b60006128cc602e83612daa565b91506128d782613596565b604082019050919050565b6128eb81612f45565b82525050565b60006128fd82846125bc565b915081905092915050565b600061291482856125bc565b915061292082846125bc565b91508190509392505050565b600061293882866125bc565b915061294482856125bc565b915061295082846125bc565b9150819050949350505050565b600061296982856125ed565b915061297582846125bc565b915061298082612761565b91508190509392505050565b60006129978261266c565b91506129a382846125bc565b915081905092915050565b60006129b982612833565b91506129c582856125bc565b91506129d08261273e565b91506129dc82846125bc565b91506129e7826127ca565b91508190509392505050565b60006129fe8261289c565b9150612a0a82846125bc565b915081905092915050565b6000602082019050612a2a600083018461252c565b92915050565b6000608082019050612a45600083018761252c565b612a52602083018661252c565b612a5f60408301856128e2565b8181036060830152612a71818461254a565b905095945050505050565b6000604082019050612a91600083018561252c565b612a9e60208301846128e2565b9392505050565b6000602082019050612aba600083018461253b565b92915050565b60006020820190508181036000830152612ada8184612583565b905092915050565b60006060820190508181036000830152612afc8186612583565b9050612b0b60208301856128e2565b612b18604083018461252c565b949350505050565b60006020820190508181036000830152612b398161268f565b9050919050565b60006020820190508181036000830152612b59816126b2565b9050919050565b60006020820190508181036000830152612b79816126d5565b9050919050565b60006020820190508181036000830152612b99816126f8565b9050919050565b60006020820190508181036000830152612bb98161271b565b9050919050565b60006020820190508181036000830152612bd981612784565b9050919050565b60006020820190508181036000830152612bf9816127a7565b9050919050565b60006020820190508181036000830152612c19816127ed565b9050919050565b60006020820190508181036000830152612c3981612810565b9050919050565b60006020820190508181036000830152612c5981612856565b9050919050565b60006020820190508181036000830152612c7981612879565b9050919050565b60006020820190508181036000830152612c99816128bf565b9050919050565b6000602082019050612cb560008301846128e2565b92915050565b6000612cc5612cd6565b9050612cd18282612fc3565b919050565b6000604051905090565b600067ffffffffffffffff821115612cfb57612cfa6130fb565b5b602082029050602081019050919050565b600067ffffffffffffffff821115612d2757612d266130fb565b5b612d308261312a565b9050602081019050919050565b600067ffffffffffffffff821115612d5857612d576130fb565b5b612d618261312a565b9050602081019050919050565b60008190508160005260206000209050919050565b600081519050919050565b600081519050919050565b600082825260208201905092915050565b600082825260208201905092915050565b600081905092915050565b6000612dd182612f45565b9150612ddc83612f45565b9250827fffffffffffffffffffffffffffffffffffffffffffffffffffffffffffffffff03821115612e1157612e1061306e565b5b828201905092915050565b6000612e2782612f45565b9150612e3283612f45565b925082612e4257612e4161309d565b5b828204905092915050565b6000612e5882612f45565b9150612e6383612f45565b9250817fffffffffffffffffffffffffffffffffffffffffffffffffffffffffffffffff0483118215151615612e9c57612e9b61306e565b5b828202905092915050565b6000612eb282612f45565b9150612ebd83612f45565b925082821015612ed057612ecf61306e565b5b828203905092915050565b6000612ee682612f25565b9050919050565b60008115159050919050565b60007fffffffff0000000000000000000000000000000000000000000000000000000082169050919050565b600073ffffffffffffffffffffffffffffffffffffffff82169050919050565b6000819050919050565b82818337600083830152505050565b60005b83811015612f7c578082015181840152602081019050612f61565b83811115612f8b576000848401525b50505050565b60006002820490506001821680612fa957607f821691505b60208210811415612fbd57612fbc6130cc565b5b50919050565b612fcc8261312a565b810181811067ffffffffffffffff82111715612feb57612fea6130fb565b5b80604052505050565b6000612fff82612f45565b91507fffffffffffffffffffffffffffffffffffffffffffffffffffffffffffffffff8214156130325761303161306e565b5b600182019050919050565b600061304882612f45565b915061305383612f45565b9250826130635761306261309d565b5b828206905092915050565b7f4e487b7100000000000000000000000000000000000000000000000000000000600052601160045260246000fd5b7f4e487b7100000000000000000000000000000000000000000000000000000000600052601260045260246000fd5b7f4e487b7100000000000000000000000000000000000000000000000000000000600052602260045260246000fd5b7f4e487b7100000000000000000000000000000000000000000000000000000000600052604160045260246000fd5b6000601f19601f8301169050919050565b7f68747470733a2f2f6e6674707265766965772e30786465762e636f6465732f3f60008201527f636f64653d000000000000000000000000000000000000000000000000000000602082015250565b7f4552433732313a207472616e7366657220746f206e6f6e20455243373231526560008201527f63656976657220696d706c656d656e7465720000000000000000000000000000602082015250565b7f4552433732313a207472616e736665722066726f6d20696e636f72726563742060008201527f6f776e6572000000000000000000000000000000000000000000000000000000602082015250565b7f4552433732313a20746f6b656e20616c7265616479206d696e74656400000000600082015250565b7f4552433732313a207472616e7366657220746f20746865207a65726f2061646460008201527f7265737300000000000000000000000000000000000000000000000000000000602082015250565b7f4552433732313a20617070726f766520746f2063616c6c657200000000000000600082015250565b7f222c20226465736372697074696f6e223a20224120686967686c79206163636c60008201527f61696d656420636f6c6c656374696f6e206f6620737175617265732e222c202260208201527f696d616765223a2022646174613a696d6167652f7376672b786d6c3b6261736560408201527f36342c0000000000000000000000000000000000000000000000000000000000606082015250565b7f3c2f746578743e3c2f7376673e00000000000000000000000000000000000000600082015250565b7f4552433732313a2061646472657373207a65726f206973206e6f74206120766160008201527f6c6964206f776e65720000000000000000000000000000000000000000000000602082015250565b7f45524337323155524953746f726167653a2055524920736574206f66206e6f6e60008201527f6578697374656e7420746f6b656e000000000000000000000000000000000000602082015250565b7f227d000000000000000000000000000000000000000000000000000000000000600082015250565b7f4552433732313a20617070726f76652063616c6c6572206973206e6f7420746f60008201527f6b656e206f776e6572206e6f7220617070726f76656420666f7220616c6c0000602082015250565b7f4552433732313a206d696e7420746f20746865207a65726f2061646472657373600082015250565b7f7b226e616d65223a202200000000000000000000000000000000000000000000600082015250565b7f4552433732313a20696e76616c696420746f6b656e2049440000000000000000600082015250565b7f4552433732313a20617070726f76616c20746f2063757272656e74206f776e6560008201527f7200000000000000000000000000000000000000000000000000000000000000602082015250565b7f646174613a6170706c69636174696f6e2f6a736f6e3b6261736536342c000000600082015250565b7f4552433732313a2063616c6c6572206973206e6f7420746f6b656e206f776e6560008201527f72206e6f7220617070726f766564000000000000000000000000000000000000602082015250565b6135ee81612edb565b81146135f957600080fd5b50565b61360581612eed565b811461361057600080fd5b50565b61361c81612ef9565b811461362757600080fd5b50565b61363381612f45565b811461363e57600080fd5b5056fe416e204e465420772f20494420257320686173206265656e206d696e74656420746f2025734142434445464748494a4b4c4d4e4f505152535455565758595a6162636465666768696a6b6c6d6e6f707172737475767778797a303132333435363738392b2fa26469706673582212203a27db3dd102771ee6d6286fceb8faaa222d660259a6d4613b123a4ba9cbf30c64736f6c634300080100333c73766720786d6c6e733d27687474703a2f2f7777772e77332e6f72672f323030302f73766727207072657365727665417370656374526174696f3d27784d696e594d696e206d656574272076696577426f783d273020302033353020333530273e3c7374796c653e2e62617365207b2066696c6c3a2077686974653b20666f6e742d66616d696c793a2073657269663b20666f6e742d73697a653a20323470783b207d3c2f7374796c653e3c726563742077696474683d273130302527206865696768743d2731303025272066696c6c3d27626c61636b27202f3e3c7465787420783d273530252720793d273530252720636c6173733d27626173652720646f6d696e616e742d626173656c696e653d276d6964646c652720746578742d616e63686f723d276d6964646c65273e",
  "linkReferences": {},
  "deployedLinkReferences": {}
}